:020000040800F2
:100000005807002089010008DF1400085113000878
:10001000DD14000899040008FD1900080000000024
:10002000000000000000000000000000DD170008D4
:100030003506000800000000DB170008FB17000869
:10004000A3010008A3010008A3010008A301000800
:10005000A3010008A3010008A3010008A3010008F0
:10006000A3010008A3010008A3010008A3010008E0
:10007000A3010008A3010008A3010008A3010008D0
:10008000A3010008A3010008A3010008A3010008C0
:10009000A3010008A3010008A3010008A3010008B0
:1000A000A3010008A3010008A3010008A3010008A0
:1000B000A3010008A3010008A3010008A301000890
:1000C000A3010008A3010008A3010008A301000880
:1000D000A3010008A3010008A3010008A301000870
:1000E000A3010008A3010008A301000800F002F822
:1000F00000F03AF80AA090E8000C82448344AAF188
:100100000107DA4501D100F02FF8AFF2090EBAE885
:100110000F0013F0010F18BFFB1A43F0010318473B
:10012000482F0000682F0000103A24BF78C878C11B
:10013000FAD8520724BF30C830C144BF04680C60ED
:10014000704700000023002400250026103A28BF35
:1001500078C1FBD8520728BF30C148BF0B60704739
:100160001FB51FBD10B510BD00F058F81146FFF7C0
:10017000F7FF01F0C6FC00F076F803B4FFF7F2FFDA
:1001800003BC00F07DF8000009488047094800479B
:10019000FEE7FEE7FEE7FEE7FEE7FEE7FEE7FEE737
:1001A000FEE7FEE704480549054A064B7047000094
:1001B0005D180008ED0000085801002058070020D5
:1001C00058030020580300204FF0000200B51346EA
:1001D00094469646203922BFA0E80C50A0E80C5067
:1001E000B1F12001BFF4F7AF090728BFA0E80C5018
:1001F00048BF0CC05DF804EB890028BF40F8042B11
:1002000008BF704748BF20F8022B11F0804F18BF7D
:1002100000F8012B7047704770477047754600F033
:100220002BF8AE4605006946534620F00700854688
:1002300018B020B5FFF7B6FFBDE820404FF000062C
:100240004FF000074FF000084FF0000B21F00701BE
:10025000AC46ACE8C009ACE8C009ACE8C009ACE801
:10026000C0098D46704710B50446AFF300802046A4
:10027000BDE81040FFF781BF00487047F80000203C
:1002800001491820ABBEFEE72600020070470000BF
:100290002DE9FF410220039000268020CDE90006D1
:1002A000144D6946284600F011FA012240212846E3
:1002B00000F001FB052001F0D7FB8021284600F06B
:1002C000F5FA01270C4C012811D02670002240219C
:1002D000284600F0F0FA052001F0C6FB69462846E2
:1002E000019700F0F3F9207804B0BDE8F0812770A1
:1002F000ECE70000000C0140100000207FB5002456
:100300008020CDE900040220194E03906946304652
:1003100000F0DCF901228021304600F0CCFA002503
:100320006006040E01224021304600F0C4FA052088
:1003300001F09AFB8021304600F0B8FA012800D085
:100340000020044300224021304600F0B4FA05208A
:1003500001F08AFB6D1CEDB2082DE1D30120019064
:100360006946304600F0B2F904B0204670BD000086
:10037000000C01407FB50446C02000900120019090
:100380000220114D03906946284600F09FF9012C88
:1003900017D0002C14D100228021284600F08BFABF
:1003A00001224021284600F086FA052001F05CFB7E
:1003B00000224021284600F07EFA052001F054FB7F
:1003C0007FBD0122E8E70000000C014070B5134E2C
:1003D00005460024280601D5012200E000228021E4
:1003E000304600F068FA6806050E012240213046CA
:1003F00000F061FA052001F037FB00224021304671
:1004000000F059FA052001F02FFB641CE4B2082C1F
:10041000E0D3BDE87040FFF73BBF0000000C014097
:1004200010B50E4C01228021204600F044FA012232
:100430004021204600F03FFA052001F015FB002284
:100440008021204600F037FA052001F00DFB204600
:100450000022BDE81040402100F02DBA000C014000
:1004600010B50C4C00228021204600F024FA012215
:100470004021204600F01FFA052001F0F5FA012284
:100480008021204600F017FABDE81040052001F059
:10049000EBBA0000000C0140FEE7000070B500243C
:1004A00000F02AF84FF48075124E04E0641CE4B2A8
:1004B000012000F0CBF82946304600F0F7F910B1E2
:1004C000642CF3D30FE0642C0DD2002404E0641CF0
:1004D000E4B2012000F0BAF82946304600F0E6F90F
:1004E00018B1642C04D3012070BD642CEFD3FAE75B
:1004F000002070BD000801401FB50020019002904F
:100500004FF480700090032003906946014800F08A
:10051000DDF81FBD000801401FB54FF4807000904A
:10052000012001900290032003906946014800F0E9
:10053000CDF81FBD0008014070B500244FF4807550
:10054000134E04E0641CE4B2012000F07FF8294659
:10055000304600F0ABF908B1642CF3D3002404E07A
:10056000641CE4B2012000F071F82946304600F026
:100570009DF908B9642CF3D3282000F067F82946C8
:10058000304600F093F9002800D0012070BD000033
:100590000008014070B5002004464006050EFFF734
:1005A000CBFF641C2843E4B2082CF6D370BD2DE9C0
:1005B000FC410D46064600F023F8FFF76FFF10B12F
:1005C0000120BDE8FC8100246F46FFF7E3FF3855AA
:1005D000641CE4B2052CF8D39DF800109DF80100CE
:1005E0009DF803300A189DF8020003441A449DF850
:1005F00004309A4201D1297030700020E1E70000F8
:1006000070B5FFF789FF0A4D4FF480740022214630
:10061000284600F050F9142000F046F80122214647
:10062000284600F048F9BDE870401E2000F00EB8E2
:1006300000080140704742F6DF6303E01946491E97
:1006400089B2FCD2401E80B2F8D2704730B514494E
:100650000A68156A41F211131D4240F2444406D162
:10066000156A254203D1156825F0010515600D684E
:1006700000226A620A68156845F00105156009687C
:100680004A6A92B28242FBD3086A184206D1086ACB
:10069000204203D1086820F00100086030BD00004E
:1006A0006800002072B6FEE770B5044600F008F955
:1006B0000546601C02D004480078044400F000F9AC
:1006C000401BA042FAD370BD000000202DE9F84F76
:1006D000DFF8B8910024A9F1040B23460F2709F194
:1006E000040AABF1040EC9E00125A5402A40AA4244
:1006F0007DD1674ED1F804C0ACEB0608B44532D0CA
:1007000014DCBCF1030F3AD009DCBCF1000F2AD095
:10071000BCF1010F1CD0BCF1020F31D11DE0BCF1C6
:10072000110F17D0BCF1120F2AD119E0B8F5881FAC
:1007300019D006DCB8F5803F15D0B8F5801F1FD161
:1007400011E0B8F5001F0ED0B8F5041F18D10AE06B
:10075000CB6815E0CB681B1D12E0CB6808330FE0B7
:10076000CB680C330CE08B682BB1012B4FF00803E6
:1007700003D0456104E0042302E0056100E00023AA
:10078000FF2A01D8064601E000F104064FEA84057D
:1007900001D9A5F12005D6F8008007FA05FC28EA62
:1007A0000C0803FA05F548EA0508C6F800804D680C
:1007B000ED0062D5374DAE6946F00106AE61AD6918
:1007C00024F0030605F001050095334D06EB050CFA
:1007D000DCF80850A607360F07FA06F825EA0805E0
:1007E000DFF8B880404503D14FF0000817E044E03F
:1007F000DFF8AC80404502D14FF001080FE0DFF890
:10080000A480404502D14FF0020808E0DFF898804C
:10081000404502D14FF0030801E04FF0040808FA08
:1008200006F848EA0508CCF808804D68D9F8006059
:10083000ED024D4601D5164300E096432E604D680B
:10084000DAF80060AD02554601D5164300E0964344
:100850002E604D68DBF80060AD035D4601D51643A0
:1008600000E096432E604D68DEF80060ED037546AB
:1008700001D5164300E096432E60641C0D682A469D
:10088000E5407FF431AFBDE8F88F00000804014077
:10089000000011100010024000000140000801405B
:1008A000000C014000100140001401408068084025
:1008B00000D0012070470AB1016170470904FBE7CD
:1008C00001488068704700000000002070B50400F7
:1008D00025D094F83D00002520B984F83C502046EE
:1008E00000F0B8F8242084F83D002068016821F069
:1008F000010101602068016841F400410160206845
:10090000016821F40041016000F0EAF94D4A616894
:10091000914201D84C4900E04C49884201D2012063
:1009200070BD4B492368B0FBF1F15E6826F03F06CD
:100930000E435E606368934206D94FF49673594341
:100940004FF47A73B1FBF3F12368491C1E6A26F059
:100950003F06314319626168914210D84900401E38
:10096000B0FBF1F2521CC2F30B02042A01D20420A4
:1009700022E0B0FBF1F0401CC0F30B001CE0A268C9
:10098000F2B301EBC10303EB0116431EB3FBF6F315
:100990005B1C43F480431B0549D092B301EBC102B9
:1009A00002EB0111401EB0FBF1F0401CC0F30B0044
:1009B00040F4804040F400402168CA694CF6FF735F
:1009C0009A431043C861D4E90710014320680268C4
:1009D00022F0C00211430160D4E903010143206801
:1009E000826848F2FF339A4311438160D4E90501DC
:1009F00008432168CA6822F0FF021043C86001E082
:100A00000EE016E02068016841F0010101602564F4
:100A1000202084F83D00256384F83E50002070BDFE
:100A200001EB4106431EB3FBF6F35B1CB3E7012069
:100A3000C2E701EB4101401EB0FBF1F0401CC0F3E6
:100A40000B00B7E7A086010080841E0000093D006E
:100A500040420F0010B586B0002100910191029133
:100A6000039100680F4988421AD10F4CA06940F0E9
:100A70000800A061A069694600F008000490C02049
:100A8000009012200190032003900848FFF71EFEFB
:100A9000E06940F40010E061E06900F400100490A7
:100AA00006B010BD0054004000100240000C014090
:100AB000024881680278114481607047000000207C
:100AC000074810B5016841F010010160032000F0F3
:100AD0005FF80F2000F006F800F024F8002010BDA9
:100AE0000020024070B50D4D04464FF47A7128780D
:100AF000B1FBF0F00A490968B1FBF0F000F0C6FA6A
:100B000048B9102C07D200222146501E00F020F8D0
:100B100000206C6070BD012070BD0000000000204E
:100B20000C000020094808B5816941F0010181618C
:100B3000816901F001010091C16941F08051C161F9
:100B4000C06900F08050009008BD00000010024015
:100B5000F0B40E4B1B680C46C3F30223C3F1070528
:100B6000042D00D90425191D072901D2002300E016
:100B7000DB1E012606FA05F1491E214099409E40E0
:100B8000761E16403143F0BC00F05EBF0CED00E075
:100B9000064900F0070208684FF6FF03184040EAD4
:100BA0000220034A10430860704700000CED00E08B
:100BB0000000FA052DE9F0470F46050061D0434ECD
:100BC000306800F00700B84209D2306820F0070012
:100BD00038433060306800F00700B84251D12868CF
:100BE0003B4C810712D5400703D5606840F4E060B4
:100BF00060602878000703D5606840F4605060604A
:100C00006068A96820F0F000084360602878C00799
:100C100028D06868012810D02168022810D08907E0
:100C200000292EDA616821F0030101436160FFF7BA
:100C300047FE804641F288390DE021688903EFE7DD
:100C40008901EDE7FFF73CFEA0EB0801494502D919
:100C50000320BDE8F0876068696800F00C00B0EB25
:100C6000810FEFD1306800F00700B8420BD930682F
:100C700020F0070038433060306800F00700B842C9
:100C800001D00120E5E72878400705D56068E968CC
:100C900020F4E060084360602878000706D56068AB
:100CA000296920F4605040EAC100606000F038F823
:100CB0006168084AC1F30311515CC84006490860E5
:100CC00006480068FFF70EFF0020C2E70020024040
:100CD00000100240802100080C00002004000020C9
:100CE0000448054900684968044AC1F30221515C7F
:100CF000C84070470C0000200010024090210008FE
:100D00000448054900684968044AC1F3C221515C9E
:100D1000C84070470C0000200010024090210008DD
:100D20000E4A51680E4801F00C03042B11D0082B19
:100D30000FD10C48C1F38343C903C05C0AD5516885
:100D4000084AC1F34041921E515C054A5043B0FB32
:100D5000F1F070470449484370470000001002401A
:100D600000127A007021000800093D002DE9F84FBB
:100D7000040070D02078C04DC00749D06868C0F327
:100D80008100012807D06868C0F38100022809D1DA
:100D90006868C00306D52868800339D560680028D4
:100DA000E7D035E06068B0F5803F0BD010B1B0F50A
:100DB000A02F11D0286820F480302860286820F403
:100DC000802002E0286840F480302860606890B19C
:100DD000FFF776FD06460AE0286840F48020286088
:100DE000F0E700BFFFF76CFD801B642873D828680C
:100DF0008003F7D50CE0FFF763FD064605E000BF72
:100E0000FFF75EFD801B6428F0D828688003F7D4C4
:100E100020789A4E80074FF001094FF0000839D52D
:100E2000686810F00C0F07D06868C0F381000228D2
:100E300009D16868C00306D42868800714D52069E2
:100E4000012808D110E02069B0B1C6F80090FFF782
:100E500037FD074605E00AE1FFF732FDC01B022817
:100E6000C4D828688007F7D52868616920F0F800A1
:100E700040EAC10028600DE0C6F80080FFF720FDC1
:100E8000074604E0FFF71CFDC01B022823D8286892
:100E90008007F7D4207800072CD57948A169D9B10B
:100EA000C0F80090FFF70CFD074604E0FFF708FDCF
:100EB000C01B02280FD8686A8007F7D571484FF425
:100EC000FA510068B0FBF1F0009000BF0098411E9D
:100ED0000091FAD20EE080E0C0F80080FFF7F0FC4D
:100EE000074604E0FFF7ECFCC01B022875D8686ACF
:100EF0008007F7D42078400760D5E8690027C00054
:100F000008D4E86940F08050E861E869012700F002
:100F1000805000905C480168C90513D4016883467D
:100F200041F480710160FFF7CBFC824606E000BF10
:100F3000FFF7C6FCA0EB0A0064284ED8DBF80000DF
:100F4000C005F5D5E06801280AD008B1052813D0FE
:100F5000286A20F001002862286A20F0040002E0DC
:100F6000286A40F001002862E06841F2883B98B1AD
:100F7000FFF7A6FC82460BE0286A40F004002862D6
:100F8000EEE700BFFFF79CFCA0EB0A0159455AD8D9
:100F9000286A8007F6D50CE0FFF792FC824605E050
:100FA000FFF78EFCA0EB0A0159454CD8286A800750
:100FB000F6D41FB1E86920F08050E861E06988B399
:100FC0006968C1F38101022944D00228C6F8608013
:100FD00004D0FFF775FC044638E034E0FFF770FCFE
:100FE000074604E0FFF76CFCC01B02282BD82868DA
:100FF0008001F7D4206AB0F5803F05D16868A16808
:1010000020F4003008436860D4E9080108436968A7
:1010100021F4741108436860C6F86090FFF750FC33
:10102000044606E025E000BFFFF74AFC001B02284B
:1010300009D828688001F7D51BE000BFFFF740FC06
:10104000001B022802D90320BDE8F88F2868800120
:10105000F4D40EE00128F7D06868226A00F48031E9
:10106000914204D1616A00F47010884201D00120DD
:10107000EAE70020E8E700000010024000004242DA
:10108000800442420C0000200070004010B5401E59
:10109000B0F1807F01D3012010BD4FF0E0246061EA
:1010A0000F21601700F0D0FC0020A0610720206114
:1010B000002010BD70B590F83C20012A26D00124F4
:1010C00080F83C40022280F83D2003685A689D6801
:1010D00022F070060A6832435A600D4B02689A4249
:1010E00008D0B2F1804F05D00A4B9A4202D00A4B89
:1010F0009A4204D1496825F080031943916080F831
:101100003D40002180F83C10084670BD022070BDB3
:10111000002C0140000400400008004010B504000D
:1011200003D094F83D0010B107E0012010BD00206D
:1011300084F83C00204600F01FF8022084F83D00AF
:10114000211D206800F08CFB012084F8460084F803
:101150003E0084F83F0084F8400084F8410084F8A1
:10116000420084F8430084F8440084F8450084F881
:101170003D00002010BD000008B500680649884207
:1011800008D10648C16941F00201C161C06900F09F
:101190000200009008BD0000000400400010024062
:1011A00070B5044690F83C000025012817D00126B0
:1011B00084F83C60022084F83D002068826822F0B8
:1011C000770222F47F4282600868502838D00DDC14
:1011D00020284FD005DC90B3102811D14AE002201E
:1011E00070BD302846D040280AD13BE060282FD07F
:1011F00070280DD0B0F5805F03D0B0F5005F12D03D
:10120000012584F83D60002084F83C00284670BD2C
:10121000CB68D1E90121206800F05EFB206881687D
:1012200041F0770109E0CB68D1E90121206800F0A5
:1012300053FB2068816841F480418160E1E719E057
:10124000CA684968206800F059FB5021206806E010
:10125000CA684968206800F062FB6021206800F0DD
:1012600045FBCEE7CA684968206800F047FB40218B
:101270002068F4E7226801461046F0E770B50400E4
:1012800004D094F84100002510B106E0012070BDA3
:1012900084F84050204600F023F8242084F84100D0
:1012A0002068C16821F40051C160204600F04AFB6B
:1012B0002068016921F4904101612068416921F0B1
:1012C0002A0141612068C16841F40051C160656430
:1012D000202084F8410084F842006563002070BD3E
:1012E00030B585B000240094019402940394006802
:1012F0001449884224D11448816941F480418161B4
:10130000816901F480410491816941F004018161A6
:1013100080690E4D00F0040004904FF400700090BE
:10132000022001900320039069462846FFF7CEF97A
:101330002815CDE90004694628460294FFF7C6F94E
:1013400005B030BD003801400010024000080140E7
:10135000FEE710B5FFF764F84620FFF737F80120E5
:10136000FFF734F8BDE81040FFF77AB8F0B585B064
:10137000002420480094019402940394816941F070
:1013800020018161816901F020010491816941F0AE
:1013900004018161816901F004010491816941F0D6
:1013A000080181618069144F00F008000490012257
:1013B000A0213846FFF77FFABE1500223146384695
:1013C000FFF779FAA020009011200125CDE9010551
:1013D0000320039069463846FFF778F90220CDE9EB
:1013E0000240CDE9006569463846FFF76FF905B060
:1013F000F0BD000000100240000801400D4810B58B
:101400000B4901600C49416000214FF4804281602A
:10141000C0E9031241618161C1610162FFF756FABF
:10142000002803D0BDE81040FFF73CB910BD000014
:101430000054004014000020A086010010B586B0C2
:1014400000241748009401940294039404941349CF
:10145000059401604721C0E901144FF6FF71C0E90E
:1014600003148461FFF75AFE08B1FFF71BF94FF42C
:101470008050009069460A48FFF792FE08B1FFF7D6
:1014800011F9049404A906480594FFF713FE0028F7
:1014900001D0FFF707F906B010BD000000040040BE
:1014A000680000200C4810B50A4901604FF4E13192
:1014B0004160002181600C22C160C0E90412816199
:1014C000C161FFF7DBFE002803D0BDE81040FFF745
:1014D000E9B810BD00380140B0000020FEE7FEE78B
:1014E00070B500240021204600F0C3F8002500203C
:1014F00000F062F96D1CEDB2802DF8D3641CE4B2EB
:10150000082CEFD370BD00002DE9F0410024124EED
:101510000746802525FA04F23A4080213046FFF73D
:10152000CAF9012220213046FFF7C5F90022202107
:101530003046FFF7C0F9641CE4B2082CEAD301225C
:1015400020213046FFF7B7F93046BDE8F0410022D0
:101550002021FFF7B0B900000008014010B50B4C86
:10156000012280212046FFF7A6F9012220212046F2
:10157000FFF7A1F9002280212046FFF79CF92046C1
:101580000022BDE810402021FFF795B90008014076
:1015900010B5094C002280212046FFF78CF901226A
:1015A00020212046FFF787F920460122BDE81040A0
:1015B0008021FFF780B900000008014010B500202D
:1015C0004FF47A720021491C9142FCD3401C904296
:1015D000F8D3AE2000F0DFF8D52000F0DCF8802052
:1015E00000F0D9F8A82000F0D6F83F2000F0D3F89A
:1015F000D32000F0D0F8002000F0CDF8402000F01B
:10160000CAF8A12000F0C7F8C82000F0C4F8DA201A
:1016100000F0C1F8122000F0BEF8812000F0BBF805
:10162000CF2000F0B8F8D92000F0B5F8F12000F094
:10163000B2F8DB2000F0AFF8302000F0ACF8A420C6
:1016400000F0A9F8A62000F0A6F88D2000F0A3F87D
:10165000142000F0A0F8AF2000F09DF8BDE8104085
:10166000FFF73EBF0246012000E05043491EFCD276
:10167000704710B50C4640F0B00000F08CF8102018
:1016800040EA141000F087F804F00F00BDE81040A5
:1016900000F081B82DE9F04107460E014000103EF0
:1016A000801E15464FF0FF38F1B2C0B2FFF7E1FFE0
:1016B0000D48002400EB4515285D00F07DF8641C02
:1016C000E4B2102CF8D308EB4700F1B2C0B2FFF738
:1016D000D0FF00242819007C00F06EF8641CE4B2EE
:1016E000102CF7D3BDE8F081982100082DE9F041D6
:1016F0000746CE004000083E801E15464FF0FF38DA
:10170000F1B2C0B2FFF7B5FF1148002400EB051598
:101710002819A0F5805090F8000E00F04DF8641CD8
:10172000E4B2082CF4D308EB4700F1B2C0B2FFF7E3
:10173000A0FF00242819A0F5805090F8080E00F0B2
:101740003BF8641CE4B2082CF4D3BDE8F08100003F
:10175000782A00082DE9F04700241D4616468846E1
:1017600081460A2713E0291B0A20491EFFF77AFF4A
:10177000B6FBF0F0B0FBF7F107FB110208EB040039
:10178000C1B248463032FFF7B1FF641CE4B2AC424C
:10179000E9D3BDE8F08710B50446FFF7DFFE7820F7
:1017A000FFF7B2FE0020FFF7AFFE2046FFF7ACFECA
:1017B000BDE81040FFF7ECBE10B50446FFF7CEFEC3
:1017C0007820FFF7A1FE4020FFF79EFE2046FFF79E
:1017D0009BFEBDE81040FFF7DBBE7047704710B5B9
:1017E0000446FEF71DFE4620FEF7F0FD2046FEF7FC
:1017F000EDFDBDE81040FEF733BEFFF759B930B537
:101800008FB028216846FEF7DFFC14210AA8FEF7F6
:10181000DBFC01210804CDE900100024029402251C
:101820000491CDE907504FF4E01009906846FFF7A6
:101830009DFA08B172B6FEE70F20CDE90A054FF414
:101840008060CDE90C4002210AA80E94FFF7B2F99E
:10185000002801D072B6FEE70FB030BD704700001F
:10186000F0B50268194B1A4C1A4D4FF08047984258
:1018700005D0B84203D0A04201D0A84203D122F043
:1018800070064A683243984205D0B84203D0A0425D
:1018900001D0A84203D122F44074CA6822434C69A3
:1018A00022F08002224302608A68C2620A68826271
:1018B000984201D109690163012141610169C907A8
:1018C00003D0016921F001010161F0BD002C01404C
:1018D000000400400008004010B5846842EA03227A
:1018E00024F47F440A432243826010BD826822F0C0
:1018F00070020A4342F007018160704710B5036A25
:10190000046A24F001040462846924F0F00444EAC7
:10191000021423F00A020A438461026210BD10B56A
:10192000036A046A24F010040462846923F0A003AB
:1019300024F4704444EA023243EA011182610162F4
:1019400010BD000070B5044600680169E26821F42A
:101950004051114301612169A0680843616908434E
:101960002168CA6841F20C639A430243CA60206846
:101970004169A26921F44071114341611E49206807
:10198000884202D1FFF7BCF901E0FFF7A9F900EBAB
:10199000C00101EB0012606864218000B2FBF0F32B
:1019A000B3FBF1F36FF018067343B2FBF0F5B2FB33
:1019B000F0F605EB8305322303EB0515B5FBF1F5D6
:1019C000B6FBF1F605F0F00505EB0615B2FBF0F6F7
:1019D000B2FBF0F0B0FBF1F06FF01802504306EBF1
:1019E000800003EB0010B0FBF1F0216800F00F0065
:1019F0002844886070BD000000380140FEE7000008
:101A000010B50120FFF7EBFE1020FFF7E8FEB42031
:101A1000FEF74AFE00F0F2F809480178407800EB42
:101A2000012000F041FB00F0F3FA4FF03332054B98
:101A300000F042F900F00EF9BDE8104000F014BBD0
:101A4000110000203333F33F0907090E002804DB9F
:101A500000F1E02080F80014704700F00F0000F162
:101A6000E02080F8141D704747E000BF00BF00BFB2
:101A700000BF00BF00BF00BF00BF00BF00BF00BF6E
:101A800000BF00BF00BF00BF00BF00BF00BF00BF5E
:101A900000BF00BF00BF00BF00BF00BF00BF00BF4E
:101AA00000BF00BF00BF00BF00BF00BF00BF00BF3E
:101AB00000BF00BF00BF00BF00BF00BF00BF00BF2E
:101AC00000BF00BF00BF00BF00BF00BF00BF00BF1E
:101AD00000BF00BF00BF00BF00BF00BF00BF00BF0E
:101AE00000BF00BF00BF00BF00BF00BF00BF00BFFE
:101AF00000BF00BF00BF00BF00BF401E80B2B4D215
:101B000070471CB501208DF800008DF80400FEF729
:101B1000D7FFFFF774FEFFF729FCFFF7C3FCFFF7C1
:101B20008DFCFFF76BFCFEF76BFDFFF747FDFFF742
:101B300010FC012100220846FFF7ACFD02221146ED
:101B40000120FFF7A7FD032211460120FFF7A2FDA8
:101B5000012211460220FFF79DFD02221146104688
:101B6000FFF798FD032211460220FFF793FD0422A0
:101B700005210120FFF78EFD252209210220FFF714
:101B8000B5FD052201210320FFF784FD0622022175
:101B90000320FFF77FFD032211461046FFF77AFD71
:101BA0004FF4FA7501A96846FEF701FDFFF7D1FB76
:101BB0009DF8000000F040F803469DF80020062143
:101BC0000120FFF7C7FD9DF8040000F035F803463B
:101BD0009DF8042006210220FFF7BCFD2846FEF7F1
:101BE00063FDFFF70DFF044600F026F8034622468A
:101BF00006210320FFF7AEFDD4E7000070B5FEF725
:101C00000FFC4720FEF7E2FB00240A4DFEF776FBAF
:101C10002855032C0CD00020FEF7ACFB641CE4B26A
:101C2000032CF3D3FEF71CFC0520FEF704FD70BD6A
:101C30000120F1E71100002050B100215FF00A02FD
:101C4000B0FBF2F0491CC9B20028F9D10846704730
:101C50000120704721F00042A2F16052B2F5801FCE
:101C600001F0004328BFD2F17F6C0BD95FEA001C62
:101C700043EAC20242EB507018BF704728BF20F001
:101C800001007047B2F5801FBCBF184670474FEA8D
:101C9000410C1CF5001F02D2084600F063BA70B573
:101CA00000F062F900000089FFF7F6BF4FF0004036
:101CB000A0F58000704700002DE9C04130B4DFF886
:101CC000A0C23CEA111418BF3CEA131400F0EC80E7
:101CD00081EA03051CEA111444EAD57418BF1CEA12
:101CE000131500F0C780A4EB05044FF0004545EA4A
:101CF000C12145EAC32341EA505143EA525304F15A
:101D00007F74994204F500344FEAC0204FEAC222A2
:101D100008BF904200F09C804FEA13650FF2401616
:101D2000765D4FEA134506FB05F7C7F1807706FBA2
:101D300007F74FEAD737A7FB03687642C8F5803824
:101D4000A7FB06CE38BFA8F1010807FB08E64FF055
:101D5000000EA6FB028CE6FB03CEDCF1000CCEF1FC
:101D6000004E38BFAEF1010EA6FB0C584FF0000735
:101D70004FF00005E6FB0E87A1FB08C6A0FB07CECF
:101D800016EB0E0645F10005E1FB076515F1E04E87
:101D90007EBFA4F580345FEA46066D4116F18007E8
:101DA00045F100054FEA17274FEA066647EA05673F
:101DB000A6F1DE46B6F1805F4FEA15251FD93846F9
:101DC00024F0010C05EBC471BCF1FE6F01EB0C11AA
:101DD00002D8F0BCBDE8008124425CBF01F5801E42
:101DE0009EEAC47F02D4F0BCBDE80081244238D40E
:101DF000F0BCA1F1C041BDE8004100F003B94FEAD9
:101E0000D22242EA43524FEAD323A7FB02864FEA8B
:101E1000D02040EA415007FB03661EEA0E0F4FEA4E
:101E2000D12105FB026658BFA6EB0056B6EB005663
:101E30004FEA520E4EEAC37E18EB0E0E56EB530ECF
:101E4000BDD518EB02085E417F1C55F10005B6E7D1
:101E50004FF480154FF000074FF000064FF00008D8
:101E6000ADE7F0BC4FF0000001F1C04101F00041CE
:101E7000BDE8008111EA0C1F0CEA131500D00CE03C
:101E800013EA0C1F00F025804FF00000F0BC81EA3F
:101E9000030101F00041BDE80081F0BCBDE8004154
:101EA00081EA030100F0AEB8F0BCBDE8004170B5B6
:101EB00000F05AF8097EFC3E00F007B881EA030101
:101EC0004FF0000001F00041704781EA030100F08B
:101ED00099B8F0BCBDE800414FF0000021497047BF
:101EE000FFFDFBF9F7F5F4F2F0EEEDEBE9E8E6E4DF
:101EF000E3E1E0DEDDDBDAD8D7D5D4D3D1D0CFCD66
:101F0000CCCBCAC8C7C6C5C4C2C1C0BFBEBDBCBB9E
:101F1000BAB9B8B7B6B5B4B3B2B1B0AFAEADACAB99
:101F2000AAA9A8A8A7A6A5A4A3A3A2A1A09F9F9E73
:101F30009D9C9C9B9A999998979796959594939325
:101F4000929191908F8F8E8E8D8C8C8B8B8A8989BC
:101F5000888887878685858484838382828181803F
:101F60000000FF070000F87F0EF1020E2EF0030EB6
:101F70005EF8046B364205D4012A43EB030515F5E0
:101F8000001F12D8012841EB010C1CF5001F0CD8D2
:101F90000ED14FEAD17C15F5001F0CEB4C0C0CF167
:101FA000020C08BF4CEBD37C04E04FF0080C01E0BE
:101FB0004FEAD37C0CEB4C0526FA05F606F0070633
:101FC000B6F1040C06D20EEB860CBDE870404CF066
:101FD000010C6047DFE80CF0090B02024FF00041F2
:101FE0004FF00000A1F5002170BD194610460128F0
:101FF00051EB010418BFD4F5001484BF002001F098
:10200000004170BD0808A0F500114FEA310170478A
:1020100043004FEAD30C4FEA3C0C43401FBF40073C
:102020000CF1605113F0FE4F70471CF0006F03D1AC
:1020300000200CF0004170470CF0004343EA507060
:1020400010B540EACC0000F047F800BF0000009255
:102050004FEA0001FFF7D6BF4FF000414FF00000FC
:10206000A1F5002170470000C10DD1F19E0206DBF1
:102070004FEA002343F0004323FA02F07047004286
:1020800007D54FEA4001B1F1FE4F02D24FF00000F8
:10209000704710B500F020F8499224800020704766
:1020A0006FEA20007047000010F0004148BF404236
:1020B000B0FA80F310FA03F2C3F19D030BD051EA9A
:1020C000C35101EB1220530638BF704700F10100E5
:1020D00008BF20F0010070470EF1020E2EF0030E33
:1020E0005EF8044B244204D44FEA4102B2F17F4F20
:1020F00011D84FEA4003B3F17F4F0CD80ED14FEA0D
:10210000D07CB2F17F4F0CEB4C0C0CF1020C08BFF1
:102110004CEBD17C04E04FF0080C01E04FEAD17C9D
:102120000CEB4C0324FA03F404F00704B4F1040CA0
:1021300006D20EEB840CBDE810404CF0010C604759
:10214000DFE80CF0070802024FF00040A0F5800025
:1021500010BD0846420018BFD2F1807288BF00F05F
:10216000004010BDFF2141EAD050C0057047010278
:1021700002030405060708090A0B0C0D0E0F1010C8
:102180000000000000000000010203040607080927
:1021900000000000010203041060028C0000FE92A7
:1021A00092929292FE00000004047E01407E424220
:1021B0007E427E42427E40001060028C00FE92927F
:1021C00092929292FE00000004047E014448507FE7
:1021D00040407F50484440000000FC242424FC255B
:1021E0002624FC242424040040308F80844C552570
:1021F0002525554C80808000000000000000000074
:102200000000000000000000000036360000000062
:102210000000000000000000060909E6F80C0402B6
:1022200002020202041E0000000000071F302040CE
:1022300040404040201000004040424458C0407F91
:1022400040C05048464040008080402018070000B1
:10225000003F40404040780002E222223E00809E43
:102260009292F292929E8000004382423E40474406
:1022700044447F444454E700000000000000000094
:10228000000000000000000000000000000000004E
:10229000000000000000000000000000000000003E
:1022A00000000000000000000000000000808080AE
:1022B0008080C0C0C0C0C0C0C0C0C0C0C0C0C0C09E
:1022C000C0C0C0C0C0C0808080808080000000008E
:1022D000000000000000000000000000000000807E
:1022E00000000000000000000000000000000000EE
:1022F000000000000000000000000000000000409E
:1023000000202020303030303030303030307070AD
:10231000707070F0E0E0E0C0C0C0808080C0C0E0BD
:10232000F0F0F8F8FCFCFCFEFEFEFFFFFFFFFFFFF5
:10233000FFFFFFFFFFFFFFFFFFFFFFFFFFFFFFFFAD
:10234000FFFFFFFFFFFFFFFFFFFFFFFFFFFFFFFF9D
:10235000FEFEFEFCFCF8F8F0E0E0C08080F0FEFF3E
:10236000FFFE7C380080000000000000000000003C
:1023700000000000000000000000000000000080DD
:10238000C0E0E0F0F0F8F87C7C3C3E3E3E9E9EDFF4
:10239000DFFFEFFFFFFFFFFFFFFFFFFFFFFFFFFF7D
:1023A000FFFFFFFFFFFFFFFFFFFFFFFFFFFFFFFF3D
:1023B000FFFFFFFFFFFFFFFFFFFFFFFFFFFFFFFF2D
:1023C000FFFFFFFFFFFFFFFFFFFFFFFFFFFFFFFF1D
:1023D000FFFFFFFFFFFFFFFFFFFFFFFFFFFFFFFF0D
:1023E0008D04020301000000000000000000000056
:1023F000000000000000000000000000783E1F0FF9
:1024000007030301000000C0F0F8FC7E3F1F0FF738
:10241000FFFFFF070301FFFFFFFF3FFFFFFFBFFFBE
:10242000FFFFFFFFCFE7FFBF9F87838187BFFFFFCE
:10243000FFFFFFFFFFF7F7EFDFDFBF7FFFFFFFFFCC
:10244000FFFFFFFFFFFFF7F7FFEFEFFFFFFFFFFFCC
:10245000FFFFFFFFFFFFFFFFFFFFFFFFFFFFFF7F0C
:102460000F0000000000000000000000000000005D
:10247000000000000000000000000000000000005C
:10248000000000000000003FFF9F01000000000767
:102490001F394386080010299F1FFE5FB367C101E3
:1024A0000F0D05051D3F75654DC5C583834F45154A
:1024B0001F2F2D090307677F6F3F3F3F3FFF7F7F40
:1024C0007FFF69695D5D053F3F77676F4343434326
:1024D000432303038787450981C3FFFF6F0F017003
:1024E00000000000000000000000000000000000EC
:1024F00000000000000000000000000000000000DC
:1025000000000000000000000001000000000000CA
:102510000000000000000000000201060D1211275B
:102520000A4C5020400080000000008040404040A5
:1025300040009000080401000818101000000284F8
:102540000811000000000000000000000000000072
:10255000C0C0E0F438745E3F2F170B010402010085
:10256000000000000000000000000000000000006B
:10257000000000000000000000000000000000005B
:10258000000000000000000000000000000000004B
:10259000000000000000000000000000000000003B
:1025A0008080C0C0E0E06060E0FAC1008000000010
:1025B00000000087F8A0C0C0C0C0808080004040FC
:1025C000400020A0E09080808880848C8E0A0909D9
:1025D00010000000000000000000000000000000EB
:1025E00000000000000000000000000000000000EB
:1025F00000000000000000000000000000000000DB
:1026000000000000000000000000000000000000CA
:1026100000000000000000000000E07C3E0E070704
:102620000703032941800000000003071870E1A0A0
:10263000603030000F1FBF7FFFFFFFFFFFBFBE3EB8
:10264000BF1F1F3E7F7F7F7FFFFFFFFBF9F0F0E0A2
:10265000E0E0C0C0C08000000000000000000000FA
:10266000000000000000000000000000000000006A
:10267000000000000000000000000000000000005A
:10268000000000000000000000000000000000004A
:1026900000000000000080C0C06070303818181CB6
:1026A0000C0C0C0C0C0E060606060E0C0C0C0C0C7E
:1026B00018181830306060C0C08080000000000032
:1026C000000000000000000000000000000000000A
:1026D00000000000000000000000000000000000FA
:1026E00000000000000000000000000000000000EA
:1026F00000000000000000000000000000000000DA
:102700000000000000000080F0F8FCFEFEFFFFFF6C
:10271000FF3E1E0E07030101000000000000000044
:1027200000000000000000000000000000000000A9
:102730000000000000000080C0E1F3733E9EDCF862
:10274000F8F8F8F8F8F8F0E06070787C7C7C7EFEB1
:10275000FEFCFCFCF8F0C0000000000000000000DF
:102760000000000000000000000000000000000069
:102770000000000000000000000000000000000059
:102780000000000000000000070F9FFF7F1F0701EF
:102790000000000000000000000000000000000039
:1027A0000000000000000000000000000000000029
:1027B00080C0E0F8FCFEFF3F0F030100003F7FFFF9
:1027C000FFFFFF3F0F0707030000000000000000AD
:1027D000000001010303070E0C1830E0C080000068
:1027E00000000000000000000000000000000000E9
:1027F00000000000000000000000000000000000D9
:10280000000000000000000080E0FFFFFCFCFEFE76
:10281000FEFFFFFEFEFEFCFCF8F0E0800000000082
:1028200000000000000000000000000000C0F8FEF2
:10283000FFFFFFFFFF0F010000000000000000008D
:10284000000000000000000000000000008080C0C8
:10285000C0E0E0E060E0C080000000000187FEFC16
:10286000E000000000000000000000000000000088
:102870000000000000000000000000000000000058
:10288000000000000000C0FCFFFFFFFFFFFFFFFF94
:10289000FFFFFFFFFFFFFFFFFFFFFFFFFEE0000066
:1028A00000000000000000000000000000FFFFFF2B
:1028B000FFFFFFFFFFF8C000000000000000000065
:1028C00000000000000000000000F8FE7F7FBFDF76
:1028D000E7F3FDFEFF7F3F0F0000000000070F1F22
:1028E0001F1E383070E0C0C08000000000000000F3
:1028F00000000000000000000000000000000000D8
:102900000000000000001FFFFFFFFFFFFFFFFFFFB1
:10291000FFFFFFFFFFFFFFFFFFFFFFFFFFFFFF7F47
:102920007F7F7F7F7FFEFCF8F0000000003FFFFF0D
:10293000FFFFFFFFFFFFFFFFFEFCF8F0E0E0C0C07D
:10294000C0C0C0C0C0C0C0C0C0C0808082830303FC
:102950000303010100000000000000000000000E61
:102960001E3FFF9E80C1FFFFFFFFFEF8F00000004A
:102970000000000000000000000000000000000057
:1029800000000000000000030F3FFFFFFFFFFFFFFC
:10299000FFFFFFFFFFFFFF3F0F07030101000000E4
:1029A000000000000080E1FF3F0000000000010780
:1029B0001F3FFFFFFFFFFFFFFFFFFFFFFFFFFFFFC7
:1029C000FFFFFFFFFFFFFFFFFFFFFFFFFFFFFFFF17
:1029D000FEFEF8F00000000000808080C0C0607142
:1029E00071797C7E7F7F3F3F3F1F1F0F03000000F8
:1029F00000000000000000000000000000000000D7
:102A00000000000000000000000000010307070FA5
:102A10001F1F1F3F3F3F7F7870707070707030389D
:102A2000381C1C1E1F1B19181818181818181818ED
:102A3000181818191B1F1F1F1F1F1F3F3F3F3F3F25
:102A40007F7F7F7F7F7F7F7F7F7F7F7F7F7F7F7F96
:102A50003F3F1F0F060603030303010100000000B0
:102A60000000000000000000000000000000000066
:102A70000000000000000000000000000000000056
:102A80000000000000000000000000F8000000004E
:102A9000000000333000000000100C06100C06008F
:102AA000000000000000000040C07840C0784000F6
:102AB000043F04043F040400007088FC0830000058
:102AC000001820FF211E0000F008F000E0180000B0
:102AD00000211C031E211E0000F008887000000069
:102AE0001E2123241927211010160E0000000000BB
:102AF0000000000000000000000000E018040200D8
:102B0000000000071820400000020418E000000048
:102B10000040201807000000404080F08040400046
:102B20000202010F01020200000000F0000000009C
:102B30000101011F01010100000000000000000070
:102B400080B07000000000000000000000000000E5
:102B5000000101010101010100000000000000006E
:102B60000030300000000000000000008060180409
:102B7000006018060100000000E010080810E000E6
:102B8000000F102020100F00001010F800000000AF
:102B90000020203F202000000070080808887000F6
:102BA0000030282422213000003008888848300076
:102BB0000018202020110E000000C02010F8000096
:102BC00000070424243F240000F80888880808002F
:102BD0000019212020110E0000E010888818000044
:102BE000000F112020110E0000380808C838080016
:102BF0000000003F00000000007088080888700096
:102C0000001C222121221C0000E010080810E00016
:102C10000000312222110F00000000C0C00000009F
:102C200000000030300000000000008000000000C4
:102C300000008060000000000000804020100800BC
:102C40000001020408102000404040404040400085
:102C50000404040404040400000810204080000060
:102C60000020100804020100007048080808F00065
:102C70000000003036010000C030C828E810E00035
:102C80000718272423140B000000C038E0000000C0
:102C9000203C23020227382008F88888887000002A
:102CA000203F202020110E00C030080808083800FE
:102CB000071820202010080008F808080810E00075
:102CC000203F202020100F0008F88888E808100016
:102CD000203F20202320180008F88888E8081000EA
:102CE000203F200003000000C03008080838000022
:102CF00007182020221E020008F808000008F80823
:102D0000203F210101213F20000808F808080000A9
:102D10000020203F2020000000000808F8080800DC
:102D2000C08080807F00000008F888C02818080054
:102D3000203F20012638200008F80800000000008D
:102D4000203F20202020300008F8F800F8F8080084
:102D5000203F003F003F200008F830C00008F8087E
:102D6000203F200007183F00E01008080810E0008E
:102D70000F10202020100F0008F808080808F000A5
:102D8000203F210101010000E01008080810E000C8
:102D90000F18242438504F0008F88888888870005D
:102DA000203F2000030C30200070880808083800FD
:102DB0000038202121221C00180808F808081800F3
:102DC0000000203F2000000008F808000008F80874
:102DD000001F202020201F000878880000C8380825
:102DE000000007380E010000F80800F80008F8009D
:102DF000033C0700073C0300081868808068180837
:102E000020302C03032C30200838C800C8380800B4
:102E10000000203F2000000010080808C838080003
:102E20002038262120201800000000FE02020200A7
:102E30000000007F40404000000C30C00000000057
:102E4000000000010638C00000020202FE0000007F
:102E5000004040407F000000000004020202040025
:102E60000000000000000000000000000000000062
:102E7000808080808080808000020204000000004A
:102E80000000000000000000000080808080000042
:102E90000019242222223F2008F800808000000030
:102EA000003F112020110E000000008080800000F3
:102EB000000E112020201100000000808088F80002
:102EC000000E112020103F20000080808080000034
:102ED000001F222222221300008080F08888881898
:102EE0000020203F202000000000808080808000A3
:102EF000006B94949493600008F800808080000038
:102F0000203F210000203F20008098980000000012
:102F10000020203F20200000000000809898000042
:102F200000C08080807F000008F800008080800062
:102F3000203F24022D302000000808F80000000087
:102F40000020203F20200000808080808080800042
:102F5000203F20003F20003F8080008080800000D4
:102F6000203F210000203F20000080808080000062
:102F7000001F202020201F00808000808000000093
:102F800080FFA12020110E000000008080808000C2
:102F9000000E112020A0FF808080800080808000B3
:102FA00020203F21200001000000808080808000E0
:102FB0000033242424241900008080E08080000055
:102FC0000000001F202000008080000000808000A2
:102FD000001F202020103F20808080000080808003
:102FE00000010E3008060100808000800080808093
:102FF0000F300C030C300F000080800080808000B8
:103000000020312E0E3120008080800000808080E2
:1030100080818E7018060100008080808080800092
:103020000021302C2221300000000000807C0202B0
:1030300000000000003F404000000000FF000000D2
:1030400000000000FF0000000002027C8000000081
:103050000040403F0000000000060101020204049D
:103060000000000000000000883000080000002080
:1030700014000000280100089C3000081400002003
:103080004407000044010008010000001000000097
:0C3090000000000000127A0000000000A8
:04000005080000ED02
:00000001FF
